{
  "contractName": "YieldFarm",
  "abi": [
    {
      "inputs": [
        {
          "internalType": "contract UZHRewardToken",
          "name": "_uzhrewardToken",
          "type": "address"
        },
        {
          "internalType": "contract UZHETHToken",
          "name": "_uzhethToken",
          "type": "address"
        }
      ],
      "stateMutability": "nonpayable",
      "type": "constructor"
    },
    {
      "inputs": [
        {
          "internalType": "uint256",
          "name": "",
          "type": "uint256"
        }
      ],
      "name": "deposers",
      "outputs": [
        {
          "internalType": "address",
          "name": "",
          "type": "address"
        }
      ],
      "stateMutability": "view",
      "type": "function",
      "constant": true
    },
    {
      "inputs": [
        {
          "internalType": "address",
          "name": "",
          "type": "address"
        }
      ],
      "name": "deposingBalance",
      "outputs": [
        {
          "internalType": "uint256",
          "name": "",
          "type": "uint256"
        }
      ],
      "stateMutability": "view",
      "type": "function",
      "constant": true
    },
    {
      "inputs": [
        {
          "internalType": "address",
          "name": "",
          "type": "address"
        }
      ],
      "name": "hasDeposed",
      "outputs": [
        {
          "internalType": "bool",
          "name": "",
          "type": "bool"
        }
      ],
      "stateMutability": "view",
      "type": "function",
      "constant": true
    },
    {
      "inputs": [
        {
          "internalType": "address",
          "name": "",
          "type": "address"
        }
      ],
      "name": "isDeposing",
      "outputs": [
        {
          "internalType": "bool",
          "name": "",
          "type": "bool"
        }
      ],
      "stateMutability": "view",
      "type": "function",
      "constant": true
    },
    {
      "inputs": [],
      "name": "name",
      "outputs": [
        {
          "internalType": "string",
          "name": "",
          "type": "string"
        }
      ],
      "stateMutability": "view",
      "type": "function",
      "constant": true
    },
    {
      "inputs": [],
      "name": "owner",
      "outputs": [
        {
          "internalType": "address",
          "name": "",
          "type": "address"
        }
      ],
      "stateMutability": "view",
      "type": "function",
      "constant": true
    },
    {
      "inputs": [],
      "name": "uzhethToken",
      "outputs": [
        {
          "internalType": "contract UZHETHToken",
          "name": "",
          "type": "address"
        }
      ],
      "stateMutability": "view",
      "type": "function",
      "constant": true
    },
    {
      "inputs": [],
      "name": "uzhrewardToken",
      "outputs": [
        {
          "internalType": "contract UZHRewardToken",
          "name": "",
          "type": "address"
        }
      ],
      "stateMutability": "view",
      "type": "function",
      "constant": true
    },
    {
      "inputs": [
        {
          "internalType": "uint256",
          "name": "_amount",
          "type": "uint256"
        }
      ],
      "name": "deposeTokens",
      "outputs": [],
      "stateMutability": "nonpayable",
      "type": "function"
    },
    {
      "inputs": [],
      "name": "undeposeTokens",
      "outputs": [],
      "stateMutability": "nonpayable",
      "type": "function"
    },
    {
      "inputs": [],
      "name": "issueToken",
      "outputs": [],
      "stateMutability": "nonpayable",
      "type": "function"
    }
  ],
  "bytecode": "0x60806040526040518060400160405280600f81526020017f4461707020546f6b656e204661726d0000000000000000000000000000000000815250600090805190602001906200005192919062000150565b503480156200005f57600080fd5b50604051620015f9380380620015f98339818101604052810190620000859190620002c3565b81600260006101000a81548173ffffffffffffffffffffffffffffffffffffffff021916908373ffffffffffffffffffffffffffffffffffffffff16021790555080600360006101000a81548173ffffffffffffffffffffffffffffffffffffffff021916908373ffffffffffffffffffffffffffffffffffffffff16021790555033600160006101000a81548173ffffffffffffffffffffffffffffffffffffffff021916908373ffffffffffffffffffffffffffffffffffffffff16021790555050506200036f565b8280546200015e9062000339565b90600052602060002090601f016020900481019282620001825760008555620001ce565b82601f106200019d57805160ff1916838001178555620001ce565b82800160010185558215620001ce579182015b82811115620001cd578251825591602001919060010190620001b0565b5b509050620001dd9190620001e1565b5090565b5b80821115620001fc576000816000905550600101620001e2565b5090565b600080fd5b600073ffffffffffffffffffffffffffffffffffffffff82169050919050565b6000620002328262000205565b9050919050565b6000620002468262000225565b9050919050565b620002588162000239565b81146200026457600080fd5b50565b60008151905062000278816200024d565b92915050565b60006200028b8262000225565b9050919050565b6200029d816200027e565b8114620002a957600080fd5b50565b600081519050620002bd8162000292565b92915050565b60008060408385031215620002dd57620002dc62000200565b5b6000620002ed8582860162000267565b92505060206200030085828601620002ac565b9150509250929050565b7f4e487b7100000000000000000000000000000000000000000000000000000000600052602260045260246000fd5b600060028204905060018216806200035257607f821691505b602082108114156200036957620003686200030a565b5b50919050565b61127a806200037f6000396000f3fe608060405234801561001057600080fd5b50600436106100a95760003560e01c806374becfbd1161007157806374becfbd146101425780637c806685146101725780638da5cb5b146101a2578063a1ee8c78146101c0578063ce763cd0146101ca578063d540351f146101e6576100a9565b806306fdde03146100ae5780631926e078146100cc5780631d375666146100d65780633c4303be146100f4578063661ecd7714610124575b600080fd5b6100b6610216565b6040516100c39190610bda565b60405180910390f35b6100d46102a4565b005b6100de61047b565b6040516100eb9190610c7b565b60405180910390f35b61010e60048036038101906101099190610cd9565b6104a1565b60405161011b9190610d21565b60405180910390f35b61012c6104c1565b6040516101399190610d5d565b60405180910390f35b61015c60048036038101906101579190610cd9565b6104e7565b6040516101699190610d21565b60405180910390f35b61018c60048036038101906101879190610cd9565b610507565b6040516101999190610d91565b60405180910390f35b6101aa61051f565b6040516101b79190610dbb565b60405180910390f35b6101c8610545565b005b6101e460048036038101906101df9190610e02565b610817565b005b61020060048036038101906101fb9190610e02565b610b02565b60405161020d9190610dbb565b60405180910390f35b6000805461022390610e5e565b80601f016020809104026020016040519081016040528092919081815260200182805461024f90610e5e565b801561029c5780601f106102715761010080835404028352916020019161029c565b820191906000526020600020905b81548152906001019060200180831161027f57829003601f168201915b505050505081565b6000600560003373ffffffffffffffffffffffffffffffffffffffff1673ffffffffffffffffffffffffffffffffffffffff1681526020019081526020016000205490506000811161032b576040517f08c379a000000000000000000000000000000000000000000000000000000000815260040161032290610edc565b60405180910390fd5b600360009054906101000a900473ffffffffffffffffffffffffffffffffffffffff1673ffffffffffffffffffffffffffffffffffffffff1663a9059cbb33836040518363ffffffff1660e01b8152600401610388929190610efc565b602060405180830381600087803b1580156103a257600080fd5b505af11580156103b6573d6000803e3d6000fd5b505050506040513d601f19601f820116820180604052508101906103da9190610f51565b506000600560003373ffffffffffffffffffffffffffffffffffffffff1673ffffffffffffffffffffffffffffffffffffffff168152602001908152602001600020819055506000600760003373ffffffffffffffffffffffffffffffffffffffff1673ffffffffffffffffffffffffffffffffffffffff16815260200190815260200160002060006101000a81548160ff02191690831515021790555050565b600260009054906101000a900473ffffffffffffffffffffffffffffffffffffffff1681565b60066020528060005260406000206000915054906101000a900460ff1681565b600360009054906101000a900473ffffffffffffffffffffffffffffffffffffffff1681565b60076020528060005260406000206000915054906101000a900460ff1681565b60056020528060005260406000206000915090505481565b600160009054906101000a900473ffffffffffffffffffffffffffffffffffffffff1681565b600160009054906101000a900473ffffffffffffffffffffffffffffffffffffffff1673ffffffffffffffffffffffffffffffffffffffff163373ffffffffffffffffffffffffffffffffffffffff16146105d5576040517f08c379a00000000000000000000000000000000000000000000000000000000081526004016105cc90610fca565b60405180910390fd5b6000805b6004805490508110156106845760056000600483815481106105fe576105fd610fea565b5b9060005260206000200160009054906101000a900473ffffffffffffffffffffffffffffffffffffffff1673ffffffffffffffffffffffffffffffffffffffff1673ffffffffffffffffffffffffffffffffffffffff168152602001908152602001600020548261066f9190611048565b9150808061067c9061109e565b9150506105d9565b5060005b600480549050811015610813576000600482815481106106ab576106aa610fea565b5b9060005260206000200160009054906101000a900473ffffffffffffffffffffffffffffffffffffffff1690506000600560008373ffffffffffffffffffffffffffffffffffffffff1673ffffffffffffffffffffffffffffffffffffffff1681526020019081526020016000205490506000600a82868461072d9190611116565b6107379190611147565b6107419190611116565b905060008211156107fd57600260009054906101000a900473ffffffffffffffffffffffffffffffffffffffff1673ffffffffffffffffffffffffffffffffffffffff1663a9059cbb84836040518363ffffffff1660e01b81526004016107a9929190610efc565b602060405180830381600087803b1580156107c357600080fd5b505af11580156107d7573d6000803e3d6000fd5b505050506040513d601f19601f820116820180604052508101906107fb9190610f51565b505b505050808061080b9061109e565b915050610688565b5050565b6000811161085a576040517f08c379a0000000000000000000000000000000000000000000000000000000008152600401610851906111ed565b60405180910390fd5b600360009054906101000a900473ffffffffffffffffffffffffffffffffffffffff1673ffffffffffffffffffffffffffffffffffffffff166323b872dd3330846040518463ffffffff1660e01b81526004016108b99392919061120d565b602060405180830381600087803b1580156108d357600080fd5b505af11580156108e7573d6000803e3d6000fd5b505050506040513d601f19601f8201168201806040525081019061090b9190610f51565b5080600560003373ffffffffffffffffffffffffffffffffffffffff1673ffffffffffffffffffffffffffffffffffffffff168152602001908152602001600020546109579190611048565b600560003373ffffffffffffffffffffffffffffffffffffffff1673ffffffffffffffffffffffffffffffffffffffff16815260200190815260200160002081905550600660003373ffffffffffffffffffffffffffffffffffffffff1673ffffffffffffffffffffffffffffffffffffffff16815260200190815260200160002060009054906101000a900460ff16610a4f576004339080600181540180825580915050600190039060005260206000200160009091909190916101000a81548173ffffffffffffffffffffffffffffffffffffffff021916908373ffffffffffffffffffffffffffffffffffffffff1602179055505b6001600760003373ffffffffffffffffffffffffffffffffffffffff1673ffffffffffffffffffffffffffffffffffffffff16815260200190815260200160002060006101000a81548160ff0219169083151502179055506001600660003373ffffffffffffffffffffffffffffffffffffffff1673ffffffffffffffffffffffffffffffffffffffff16815260200190815260200160002060006101000a81548160ff02191690831515021790555050565b60048181548110610b1257600080fd5b906000526020600020016000915054906101000a900473ffffffffffffffffffffffffffffffffffffffff1681565b600081519050919050565b600082825260208201905092915050565b60005b83811015610b7b578082015181840152602081019050610b60565b83811115610b8a576000848401525b50505050565b6000601f19601f8301169050919050565b6000610bac82610b41565b610bb68185610b4c565b9350610bc6818560208601610b5d565b610bcf81610b90565b840191505092915050565b60006020820190508181036000830152610bf48184610ba1565b905092915050565b600073ffffffffffffffffffffffffffffffffffffffff82169050919050565b6000819050919050565b6000610c41610c3c610c3784610bfc565b610c1c565b610bfc565b9050919050565b6000610c5382610c26565b9050919050565b6000610c6582610c48565b9050919050565b610c7581610c5a565b82525050565b6000602082019050610c906000830184610c6c565b92915050565b600080fd5b6000610ca682610bfc565b9050919050565b610cb681610c9b565b8114610cc157600080fd5b50565b600081359050610cd381610cad565b92915050565b600060208284031215610cef57610cee610c96565b5b6000610cfd84828501610cc4565b91505092915050565b60008115159050919050565b610d1b81610d06565b82525050565b6000602082019050610d366000830184610d12565b92915050565b6000610d4782610c48565b9050919050565b610d5781610d3c565b82525050565b6000602082019050610d726000830184610d4e565b92915050565b6000819050919050565b610d8b81610d78565b82525050565b6000602082019050610da66000830184610d82565b92915050565b610db581610c9b565b82525050565b6000602082019050610dd06000830184610dac565b92915050565b610ddf81610d78565b8114610dea57600080fd5b50565b600081359050610dfc81610dd6565b92915050565b600060208284031215610e1857610e17610c96565b5b6000610e2684828501610ded565b91505092915050565b7f4e487b7100000000000000000000000000000000000000000000000000000000600052602260045260246000fd5b60006002820490506001821680610e7657607f821691505b60208210811415610e8a57610e89610e2f565b5b50919050565b7f7374616b696e672062616c616e63652063616e6e6f7420626520300000000000600082015250565b6000610ec6601b83610b4c565b9150610ed182610e90565b602082019050919050565b60006020820190508181036000830152610ef581610eb9565b9050919050565b6000604082019050610f116000830185610dac565b610f1e6020830184610d82565b9392505050565b610f2e81610d06565b8114610f3957600080fd5b50565b600081519050610f4b81610f25565b92915050565b600060208284031215610f6757610f66610c96565b5b6000610f7584828501610f3c565b91505092915050565b7f63616c6c6572206d75737420626520746865206f776e65720000000000000000600082015250565b6000610fb4601883610b4c565b9150610fbf82610f7e565b602082019050919050565b60006020820190508181036000830152610fe381610fa7565b9050919050565b7f4e487b7100000000000000000000000000000000000000000000000000000000600052603260045260246000fd5b7f4e487b7100000000000000000000000000000000000000000000000000000000600052601160045260246000fd5b600061105382610d78565b915061105e83610d78565b9250827fffffffffffffffffffffffffffffffffffffffffffffffffffffffffffffffff0382111561109357611092611019565b5b828201905092915050565b60006110a982610d78565b91507fffffffffffffffffffffffffffffffffffffffffffffffffffffffffffffffff8214156110dc576110db611019565b5b600182019050919050565b7f4e487b7100000000000000000000000000000000000000000000000000000000600052601260045260246000fd5b600061112182610d78565b915061112c83610d78565b92508261113c5761113b6110e7565b5b828204905092915050565b600061115282610d78565b915061115d83610d78565b9250817fffffffffffffffffffffffffffffffffffffffffffffffffffffffffffffffff048311821515161561119657611195611019565b5b828202905092915050565b7f616d6f756e742063616e6e6f7420626520300000000000000000000000000000600082015250565b60006111d7601283610b4c565b91506111e2826111a1565b602082019050919050565b60006020820190508181036000830152611206816111ca565b9050919050565b60006060820190506112226000830186610dac565b61122f6020830185610dac565b61123c6040830184610d82565b94935050505056fea2646970667358221220407c4b63e9e36fdc3f9e248cd12de8994559d9f5f839adb5ff710153171d30bb64736f6c63430008090033",
  "immutableReferences": {},
  "source": "// SPDX-License-Identifier: GPL-3.0\n\npragma solidity ^0.8.4;\n\nimport \"./UZHRewardToken.sol\";\nimport \"./UZHETHToken.sol\";\n\ncontract YieldFarm {\n    string public name = \"Dapp Token Farm\";\n    address public owner;\n    UZHRewardToken public uzhrewardToken;\n    UZHETHToken public uzhethToken;\n\n    address[] public deposers;\n    mapping(address => uint) public deposingBalance;\n    mapping(address => bool) public hasDeposed;\n    mapping(address => bool) public isDeposing;\n\n    constructor(UZHRewardToken _uzhrewardToken, UZHETHToken _uzhethToken){\n        uzhrewardToken = _uzhrewardToken;\n        uzhethToken = _uzhethToken;\n        owner = msg.sender;\n    }\n\n    function deposeTokens(uint _amount) public {\n        // Require amount greater than 0\n        require(_amount > 0, \"amount cannot be 0\");\n\n        // Trasnfer Mock Dai tokens to this contract for staking\n        uzhethToken.transferFrom(msg.sender, address(this), _amount);\n\n        // Update staking balance\n        deposingBalance[msg.sender] = deposingBalance[msg.sender] + _amount;\n\n        // Add user to deposers array *only* if they haven't staked already\n        if(!hasDeposed[msg.sender]) {\n            deposers.push(msg.sender);\n        }\n\n        // Update staking status\n        isDeposing[msg.sender] = true;\n        hasDeposed[msg.sender] = true;\n    }\n\n    // Unstaking Tokens (Withdraw)\n    function undeposeTokens() public {\n        // Fetch staking balance\n        uint balance = deposingBalance[msg.sender];\n\n        // Require amount greater than 0\n        require(balance > 0, \"staking balance cannot be 0\");\n\n        // Transfer Mock Dai tokens to this contract for staking\n        uzhethToken.transfer(msg.sender, balance);\n\n        // Reset staking balance\n        deposingBalance[msg.sender] = 0;\n\n        // Update staking status\n        isDeposing[msg.sender] = false;\n    }\n\n    // Issuing Tokens \n        function issueToken() public {\n            //only owner can call this function \n            require(msg.sender == owner, \"caller must be the owner\"); \n\n            uint total_deposited_balance = 0;\n\n            //calculate total amount of deoposited balance of all users together \n            for(uint i=0; i < deposers.length; i++) {\n                total_deposited_balance = total_deposited_balance + deposingBalance[deposers[i]]; \n            }\n\n            // send intrest tokens (amonugsTokens) to the users that deposited stable tokens\n            for (uint i = 0; i < deposers.length; i++){\n                address recipient = deposers[i]; \n                uint balance = deposingBalance[recipient]; \n\n                //calculate intrest to send to the different users \n                uint intrest = ((balance / total_deposited_balance) * balance ) / 10; \n\n                if(balance >0){\n                uzhrewardToken.transfer(recipient, intrest);\n                }\n            }\n        }\n}\n",
  "sourcePath": "/Users/pietrobonazzi/GitHub/21-10-blockchain-seminar/src/contracts/YieldFarm.sol",
  "compiler": {
    "name": "solc",
    "version": "0.8.9+commit.e5eed63a.Emscripten.clang"
  },
  "schemaVersion": "3.2.3",
  "updatedAt": "2021-11-05T20:36:09.925Z",
  "networkType": "ethereum",
  "devdoc": {
    "kind": "dev",
    "methods": {},
    "version": 1
  },
  "userdoc": {
    "kind": "user",
    "methods": {},
    "version": 1
  }
}